{
  "_format": "hh-sol-artifact-1",
  "contractName": "onChainGift",
  "sourceName": "contracts/onChainGift.sol",
  "abi": [
    {
      "inputs": [],
      "stateMutability": "nonpayable",
      "type": "constructor"
    },
    {
      "anonymous": false,
      "inputs": [
        {
          "indexed": true,
          "internalType": "address",
          "name": "buyer",
          "type": "address"
        },
        {
          "indexed": false,
          "internalType": "string",
          "name": "recipientEmail",
          "type": "string"
        },
        {
          "indexed": false,
          "internalType": "uint256",
          "name": "amount",
          "type": "uint256"
        }
      ],
      "name": "GiftCardPurchased",
      "type": "event"
    },
    {
      "inputs": [],
      "name": "giftCardPrice",
      "outputs": [
        {
          "internalType": "uint256",
          "name": "",
          "type": "uint256"
        }
      ],
      "stateMutability": "view",
      "type": "function"
    },
    {
      "inputs": [],
      "name": "owner",
      "outputs": [
        {
          "internalType": "address",
          "name": "",
          "type": "address"
        }
      ],
      "stateMutability": "view",
      "type": "function"
    },
    {
      "inputs": [
        {
          "internalType": "string",
          "name": "recipientEmail",
          "type": "string"
        }
      ],
      "name": "purchaseGiftCard",
      "outputs": [],
      "stateMutability": "payable",
      "type": "function"
    },
    {
      "inputs": [
        {
          "internalType": "uint256",
          "name": "_price",
          "type": "uint256"
        }
      ],
      "name": "setGiftCardPrice",
      "outputs": [],
      "stateMutability": "nonpayable",
      "type": "function"
    }
  ],
  "bytecode": "0x608060405267016345785d8a0000600155348015601b57600080fd5b50336000806101000a81548173ffffffffffffffffffffffffffffffffffffffff021916908373ffffffffffffffffffffffffffffffffffffffff1602179055506105e58061006b6000396000f3fe60806040526004361061003f5760003560e01c80632d55775a1461004457806380c6d630146100605780638da5cb5b1461008b578063fe952477146100b6575b600080fd5b61005e60048036038101906100599190610311565b6100df565b005b34801561006c57600080fd5b506100756101e0565b6040516100829190610377565b60405180910390f35b34801561009757600080fd5b506100a06101e6565b6040516100ad91906103d3565b60405180910390f35b3480156100c257600080fd5b506100dd60048036038101906100d8919061041a565b61020a565b005b6001543414610123576040517f08c379a000000000000000000000000000000000000000000000000000000000815260040161011a906104a4565b60405180910390fd5b3373ffffffffffffffffffffffffffffffffffffffff167fd52e8a17121e4f259917556d0fdd17a0f5351e3d0052e1baa87c8556d2a508d983833460405161016d93929190610511565b60405180910390a260008054906101000a900473ffffffffffffffffffffffffffffffffffffffff1673ffffffffffffffffffffffffffffffffffffffff166108fc349081150290604051600060405180830381858888f193505050501580156101db573d6000803e3d6000fd5b505050565b60015481565b60008054906101000a900473ffffffffffffffffffffffffffffffffffffffff1681565b60008054906101000a900473ffffffffffffffffffffffffffffffffffffffff1673ffffffffffffffffffffffffffffffffffffffff163373ffffffffffffffffffffffffffffffffffffffff1614610298576040517f08c379a000000000000000000000000000000000000000000000000000000000815260040161028f9061058f565b60405180910390fd5b8060018190555050565b600080fd5b600080fd5b600080fd5b600080fd5b600080fd5b60008083601f8401126102d1576102d06102ac565b5b8235905067ffffffffffffffff8111156102ee576102ed6102b1565b5b60208301915083600182028301111561030a576103096102b6565b5b9250929050565b60008060208385031215610328576103276102a2565b5b600083013567ffffffffffffffff811115610346576103456102a7565b5b610352858286016102bb565b92509250509250929050565b6000819050919050565b6103718161035e565b82525050565b600060208201905061038c6000830184610368565b92915050565b600073ffffffffffffffffffffffffffffffffffffffff82169050919050565b60006103bd82610392565b9050919050565b6103cd816103b2565b82525050565b60006020820190506103e860008301846103c4565b92915050565b6103f78161035e565b811461040257600080fd5b50565b600081359050610414816103ee565b92915050565b6000602082840312156104305761042f6102a2565b5b600061043e84828501610405565b91505092915050565b600082825260208201905092915050565b7f696e636f7272656374207061796d656e74000000000000000000000000000000600082015250565b600061048e601183610447565b915061049982610458565b602082019050919050565b600060208201905081810360008301526104bd81610481565b9050919050565b82818337600083830152505050565b6000601f19601f8301169050919050565b60006104f08385610447565b93506104fd8385846104c4565b610506836104d3565b840190509392505050565b6000604082019050818103600083015261052c8185876104e4565b905061053b6020830184610368565b949350505050565b7f6e6f7420746865206f776e657200000000000000000000000000000000000000600082015250565b6000610579600d83610447565b915061058482610543565b602082019050919050565b600060208201905081810360008301526105a88161056c565b905091905056fea26469706673582212203ebabd52ed04673cf2ef28151d397d67564435e56020140a0ca3dd615bd5491b64736f6c634300081b0033",
  "linkReferences": {},
  "deployedLinkReferences": {}
}