{
  "_format": "hh-sol-artifact-1",
  "contractName": "onChainGift2",
  "sourceName": "contracts/onChainGift2.sol",
  "abi": [
    {
      "inputs": [],
      "stateMutability": "nonpayable",
      "type": "constructor"
    },
    {
      "anonymous": false,
      "inputs": [
        {
          "indexed": true,
          "internalType": "address",
          "name": "buyer",
          "type": "address"
        },
        {
          "indexed": false,
          "internalType": "string",
          "name": "recipientEmail",
          "type": "string"
        },
        {
          "indexed": false,
          "internalType": "uint256",
          "name": "amountInEth",
          "type": "uint256"
        }
      ],
      "name": "GiftCardPurchased",
      "type": "event"
    },
    {
      "inputs": [],
      "name": "owner",
      "outputs": [
        {
          "internalType": "address",
          "name": "",
          "type": "address"
        }
      ],
      "stateMutability": "view",
      "type": "function"
    },
    {
      "inputs": [
        {
          "internalType": "string",
          "name": "recipientEmail",
          "type": "string"
        }
      ],
      "name": "purchaseGiftCard",
      "outputs": [],
      "stateMutability": "payable",
      "type": "function"
    }
  ],
  "bytecode": "0x6080604052348015600f57600080fd5b50336000806101000a81548173ffffffffffffffffffffffffffffffffffffffff021916908373ffffffffffffffffffffffffffffffffffffffff1602179055506104028061005f6000396000f3fe6080604052600436106100295760003560e01c80632d55775a1461002e5780638da5cb5b1461004a575b600080fd5b6100486004803603810190610043919061020e565b610075565b005b34801561005657600080fd5b5061005f61017b565b60405161006c919061029c565b60405180910390f35b600034116100b8576040517f08c379a00000000000000000000000000000000000000000000000000000000081526004016100af90610314565b60405180910390fd5b60003490503373ffffffffffffffffffffffffffffffffffffffff167fd52e8a17121e4f259917556d0fdd17a0f5351e3d0052e1baa87c8556d2a508d98484846040516101079392919061039a565b60405180910390a260008054906101000a900473ffffffffffffffffffffffffffffffffffffffff1673ffffffffffffffffffffffffffffffffffffffff166108fc349081150290604051600060405180830381858888f19350505050158015610175573d6000803e3d6000fd5b50505050565b60008054906101000a900473ffffffffffffffffffffffffffffffffffffffff1681565b600080fd5b600080fd5b600080fd5b600080fd5b600080fd5b60008083601f8401126101ce576101cd6101a9565b5b8235905067ffffffffffffffff8111156101eb576101ea6101ae565b5b602083019150836001820283011115610207576102066101b3565b5b9250929050565b600080602083850312156102255761022461019f565b5b600083013567ffffffffffffffff811115610243576102426101a4565b5b61024f858286016101b8565b92509250509250929050565b600073ffffffffffffffffffffffffffffffffffffffff82169050919050565b60006102868261025b565b9050919050565b6102968161027b565b82525050565b60006020820190506102b1600083018461028d565b92915050565b600082825260208201905092915050565b7f6e6f206574682073656e74000000000000000000000000000000000000000000600082015250565b60006102fe600b836102b7565b9150610309826102c8565b602082019050919050565b6000602082019050818103600083015261032d816102f1565b9050919050565b82818337600083830152505050565b6000601f19601f8301169050919050565b600061036083856102b7565b935061036d838584610334565b61037683610343565b840190509392505050565b6000819050919050565b61039481610381565b82525050565b600060408201905081810360008301526103b5818587610354565b90506103c4602083018461038b565b94935050505056fea2646970667358221220587ca77fba204458a84858228175dec2135a7bc2279a6ae13cdd69604a77206064736f6c634300081b0033",
  "linkReferences": {},
  "deployedLinkReferences": {}
}